{
  "_format": "hh-sol-artifact-1",
  "contractName": "Privatar",
  "sourceName": "contracts/Privatar.sol",
  "abi": [
    {
      "inputs": [
        {
          "internalType": "address",
          "name": "addr",
          "type": "address"
        }
      ],
      "name": "getAvatar",
      "outputs": [
        {
          "internalType": "string",
          "name": "",
          "type": "string"
        }
      ],
      "stateMutability": "view",
      "type": "function"
    },
    {
      "inputs": [
        {
          "internalType": "address",
          "name": "addr",
          "type": "address"
        }
      ],
      "name": "getProfile",
      "outputs": [
        {
          "components": [
            {
              "internalType": "string",
              "name": "name",
              "type": "string"
            },
            {
              "internalType": "string",
              "name": "note",
              "type": "string"
            },
            {
              "internalType": "string",
              "name": "avatar",
              "type": "string"
            },
            {
              "internalType": "bool",
              "name": "enabled",
              "type": "bool"
            }
          ],
          "internalType": "struct Privatar.Profile",
          "name": "",
          "type": "tuple"
        }
      ],
      "stateMutability": "view",
      "type": "function"
    },
    {
      "inputs": [
        {
          "internalType": "string",
          "name": "name",
          "type": "string"
        },
        {
          "internalType": "string",
          "name": "note",
          "type": "string"
        },
        {
          "internalType": "string",
          "name": "avatar",
          "type": "string"
        },
        {
          "internalType": "bool",
          "name": "enabled",
          "type": "bool"
        }
      ],
      "name": "updateProfile",
      "outputs": [],
      "stateMutability": "nonpayable",
      "type": "function"
    }
  ],
  "bytecode": "0x608060405234801561001057600080fd5b50610e73806100206000396000f3fe608060405234801561001057600080fd5b50600436106100415760003560e01c80630f53a47014610046578063ce8ac03314610076578063ee5f5a7a146100a6575b600080fd5b610060600480360381019061005b9190610789565b6100c2565b60405161006d91906108d2565b60405180910390f35b610090600480360381019061008b9190610789565b6103b1565b60405161009d919061093e565b60405180910390f35b6100c060048036038101906100bb91906109f1565b61054a565b005b6100ca6106f7565b818073ffffffffffffffffffffffffffffffffffffffff163373ffffffffffffffffffffffffffffffffffffffff16148061015057506000808273ffffffffffffffffffffffffffffffffffffffff1673ffffffffffffffffffffffffffffffffffffffff16815260200190815260200160002060030160009054906101000a900460ff165b61018f576040517f08c379a000000000000000000000000000000000000000000000000000000000815260040161018690610b06565b60405180910390fd5b6000808473ffffffffffffffffffffffffffffffffffffffff1673ffffffffffffffffffffffffffffffffffffffff1681526020019081526020016000206040518060800160405290816000820180546101e890610b55565b80601f016020809104026020016040519081016040528092919081815260200182805461021490610b55565b80156102615780601f1061023657610100808354040283529160200191610261565b820191906000526020600020905b81548152906001019060200180831161024457829003601f168201915b5050505050815260200160018201805461027a90610b55565b80601f01602080910402602001604051908101604052809291908181526020018280546102a690610b55565b80156102f35780601f106102c8576101008083540402835291602001916102f3565b820191906000526020600020905b8154815290600101906020018083116102d657829003601f168201915b5050505050815260200160028201805461030c90610b55565b80601f016020809104026020016040519081016040528092919081815260200182805461033890610b55565b80156103855780601f1061035a57610100808354040283529160200191610385565b820191906000526020600020905b81548152906001019060200180831161036857829003601f168201915b505050505081526020016003820160009054906101000a900460ff161515151581525050915050919050565b6060818073ffffffffffffffffffffffffffffffffffffffff163373ffffffffffffffffffffffffffffffffffffffff16148061043957506000808273ffffffffffffffffffffffffffffffffffffffff1673ffffffffffffffffffffffffffffffffffffffff16815260200190815260200160002060030160009054906101000a900460ff165b610478576040517f08c379a000000000000000000000000000000000000000000000000000000000815260040161046f90610b06565b60405180910390fd5b6000808473ffffffffffffffffffffffffffffffffffffffff1673ffffffffffffffffffffffffffffffffffffffff16815260200190815260200160002060020180546104c490610b55565b80601f01602080910402602001604051908101604052809291908181526020018280546104f090610b55565b801561053d5780601f106105125761010080835404028352916020019161053d565b820191906000526020600020905b81548152906001019060200180831161052057829003601f168201915b5050505050915050919050565b6105526106f7565b87878080601f016020809104026020016040519081016040528093929190818152602001838380828437600081840152601f19601f82011690508083019250505050505050816000018190525085858080601f016020809104026020016040519081016040528093929190818152602001838380828437600081840152601f19601f82011690508083019250505050505050816020018190525083838080601f016020809104026020016040519081016040528093929190818152602001838380828437600081840152601f19601f82011690508083019250505050505050816040018190525081816060019015159081151581525050806000803373ffffffffffffffffffffffffffffffffffffffff1673ffffffffffffffffffffffffffffffffffffffff168152602001908152602001600020600082015181600001908161069d9190610d6b565b5060208201518160010190816106b39190610d6b565b5060408201518160020190816106c99190610d6b565b5060608201518160030160006101000a81548160ff0219169083151502179055509050505050505050505050565b60405180608001604052806060815260200160608152602001606081526020016000151581525090565b600080fd5b600080fd5b600073ffffffffffffffffffffffffffffffffffffffff82169050919050565b60006107568261072b565b9050919050565b6107668161074b565b811461077157600080fd5b50565b6000813590506107838161075d565b92915050565b60006020828403121561079f5761079e610721565b5b60006107ad84828501610774565b91505092915050565b600081519050919050565b600082825260208201905092915050565b60005b838110156107f05780820151818401526020810190506107d5565b60008484015250505050565b6000601f19601f8301169050919050565b6000610818826107b6565b61082281856107c1565b93506108328185602086016107d2565b61083b816107fc565b840191505092915050565b60008115159050919050565b61085b81610846565b82525050565b6000608083016000830151848203600086015261087e828261080d565b91505060208301518482036020860152610898828261080d565b915050604083015184820360408601526108b2828261080d565b91505060608301516108c76060860182610852565b508091505092915050565b600060208201905081810360008301526108ec8184610861565b905092915050565b600082825260208201905092915050565b6000610910826107b6565b61091a81856108f4565b935061092a8185602086016107d2565b610933816107fc565b840191505092915050565b600060208201905081810360008301526109588184610905565b905092915050565b600080fd5b600080fd5b600080fd5b60008083601f84011261098557610984610960565b5b8235905067ffffffffffffffff8111156109a2576109a1610965565b5b6020830191508360018202830111156109be576109bd61096a565b5b9250929050565b6109ce81610846565b81146109d957600080fd5b50565b6000813590506109eb816109c5565b92915050565b60008060008060008060006080888a031215610a1057610a0f610721565b5b600088013567ffffffffffffffff811115610a2e57610a2d610726565b5b610a3a8a828b0161096f565b9750975050602088013567ffffffffffffffff811115610a5d57610a5c610726565b5b610a698a828b0161096f565b9550955050604088013567ffffffffffffffff811115610a8c57610a8b610726565b5b610a988a828b0161096f565b93509350506060610aab8a828b016109dc565b91505092959891949750929550565b7f4163636573732064656e69656400000000000000000000000000000000000000600082015250565b6000610af0600d836108f4565b9150610afb82610aba565b602082019050919050565b60006020820190508181036000830152610b1f81610ae3565b9050919050565b7f4e487b7100000000000000000000000000000000000000000000000000000000600052602260045260246000fd5b60006002820490506001821680610b6d57607f821691505b602082108103610b8057610b7f610b26565b5b50919050565b7f4e487b7100000000000000000000000000000000000000000000000000000000600052604160045260246000fd5b60008190508160005260206000209050919050565b60006020601f8301049050919050565b600082821b905092915050565b600060088302610c177fffffffffffffffffffffffffffffffffffffffffffffffffffffffffffffffff82610bda565b610c218683610bda565b95508019841693508086168417925050509392505050565b6000819050919050565b6000819050919050565b6000610c68610c63610c5e84610c39565b610c43565b610c39565b9050919050565b6000819050919050565b610c8283610c4d565b610c96610c8e82610c6f565b848454610be7565b825550505050565b600090565b610cab610c9e565b610cb6818484610c79565b505050565b5b81811015610cda57610ccf600082610ca3565b600181019050610cbc565b5050565b601f821115610d1f57610cf081610bb5565b610cf984610bca565b81016020851015610d08578190505b610d1c610d1485610bca565b830182610cbb565b50505b505050565b600082821c905092915050565b6000610d4260001984600802610d24565b1980831691505092915050565b6000610d5b8383610d31565b9150826002028217905092915050565b610d74826107b6565b67ffffffffffffffff811115610d8d57610d8c610b86565b5b610d978254610b55565b610da2828285610cde565b600060209050601f831160018114610dd55760008415610dc3578287015190505b610dcd8582610d4f565b865550610e35565b601f198416610de386610bb5565b60005b82811015610e0b57848901518255600182019150602085019450602081019050610de6565b86831015610e285784890151610e24601f891682610d31565b8355505b6001600288020188555050505b50505050505056fea2646970667358221220577126e7850229ea4c268d5f7155f2ce06d94c7b35177afb830a3d9b473a2cd764736f6c63430008130033",
  "linkReferences": {},
  "deployedLinkReferences": {}
}